{
  "transactions": [
    {
      "hash": "0xeb52a7d4f382b220c134ac57fdf90e96012015827210dee945f43cd5ed8a320e",
      "transactionType": "CALL",
      "contractName": null,
      "contractAddress": "0xf6d91478e66ce8161e15da103003f3ba6d2bab80",
      "function": "approve(address,uint256)",
      "arguments": [
        "0xf13D190e9117920c703d79B5F33732e10049b115",
        "115792089237316195423570985008687907853269984665640564039457584007913129639935"
      ],
      "transaction": {
        "from": "0x817ca93300590bf6aa0dfbfa592b055f7eb20090",
        "to": "0xf6d91478e66ce8161e15da103003f3ba6d2bab80",
        "gas": "0x9264",
        "value": "0x0",
        "input": "0x095ea7b3000000000000000000000000f13d190e9117920c703d79b5f33732e10049b115ffffffffffffffffffffffffffffffffffffffffffffffffffffffffffffffff",
        "nonce": "0x16",
        "chainId": "0xaa36a7"
      },
      "additionalContracts": [],
      "isFixedGasLimit": false
    },
    {
      "hash": "0xe78da1eb763b532c5ec3b37437295b02a725f813029bd484e055d0d47f6bbebd",
      "transactionType": "CALL",
      "contractName": null,
      "contractAddress": "0x7546360e0011bb0b52ce10e21ef0e9341453fe71",
      "function": "approve(address,uint256)",
      "arguments": [
        "0xf13D190e9117920c703d79B5F33732e10049b115",
        "115792089237316195423570985008687907853269984665640564039457584007913129639935"
      ],
      "transaction": {
        "from": "0x817ca93300590bf6aa0dfbfa592b055f7eb20090",
        "to": "0x7546360e0011bb0b52ce10e21ef0e9341453fe71",
        "gas": "0x9264",
        "value": "0x0",
        "input": "0x095ea7b3000000000000000000000000f13d190e9117920c703d79b5f33732e10049b115ffffffffffffffffffffffffffffffffffffffffffffffffffffffffffffffff",
        "nonce": "0x17",
        "chainId": "0xaa36a7"
      },
      "additionalContracts": [],
      "isFixedGasLimit": false
    },
    {
      "hash": "0xd2dfe24e6cf057317e720ed223d3d80cf0b37b9aef1ec27cd4100fc6d57af15e",
      "transactionType": "CALL",
      "contractName": null,
      "contractAddress": "0xf13d190e9117920c703d79b5f33732e10049b115",
      "function": "swapExactTokensForTokens(uint256,uint256,bool,(address,address,uint24,int24,address),bytes,address,uint256)",
      "arguments": [
        "1000000000000000000",
        "0",
        "true",
        "(0x7546360e0011Bb0B52ce10E21eF0E9341453fE71, 0xF6d91478e66CE8161e15Da103003F3BA6d2bab80, 3000, 60, 0x5D4505AA950a73379B8E9f1116976783Ba8340C0)",
        "0x",
        "0x817cA93300590bF6AA0DFbFa592b055F7eb20090",
        "1770290244"
      ],
      "transaction": {
        "from": "0x817ca93300590bf6aa0dfbfa592b055f7eb20090",
        "to": "0xf13d190e9117920c703d79b5f33732e10049b115",
        "gas": "0x4b14f",
        "value": "0x0",
        "input": "0xb1a0d5710000000000000000000000000000000000000000000000000de0b6b3a7640000000000000000000000000000000000000000000000000000000000000000000000000000000000000000000000000000000000000000000000000000000000010000000000000000000000007546360e0011bb0b52ce10e21ef0e9341453fe71000000000000000000000000f6d91478e66ce8161e15da103003f3ba6d2bab800000000000000000000000000000000000000000000000000000000000000bb8000000000000000000000000000000000000000000000000000000000000003c0000000000000000000000005d4505aa950a73379b8e9f1116976783ba8340c00000000000000000000000000000000000000000000000000000000000000160000000000000000000000000817ca93300590bf6aa0dfbfa592b055f7eb200900000000000000000000000000000000000000000000000000000000069847c440000000000000000000000000000000000000000000000000000000000000000",
        "nonce": "0x18",
        "chainId": "0xaa36a7"
      },
      "additionalContracts": [],
      "isFixedGasLimit": false
    }
  ],
  "receipts": [
    {
      "status": "0x1",
      "cumulativeGasUsed": "0x20b69ae",
      "logs": [
        {
          "address": "0xf6d91478e66ce8161e15da103003f3ba6d2bab80",
          "topics": [
            "0x8c5be1e5ebec7d5bd14f71427d1e84f3dd0314c0f7b2291e5b200ac8c7c3b925",
            "0x000000000000000000000000817ca93300590bf6aa0dfbfa592b055f7eb20090",
            "0x000000000000000000000000f13d190e9117920c703d79b5f33732e10049b115"
          ],
          "data": "0xffffffffffffffffffffffffffffffffffffffffffffffffffffffffffffffff",
          "blockHash": "0xc79979359f0bfd3c974cb97af5483265b5670b2bfd8fc4bf0d05672fe287cda7",
          "blockNumber": "0x9b93a9",
          "blockTimestamp": "0x69846e58",
          "transactionHash": "0xeb52a7d4f382b220c134ac57fdf90e96012015827210dee945f43cd5ed8a320e",
          "transactionIndex": "0x71",
          "logIndex": "0x5bc",
          "removed": false
        }
      ],
      "logsBloom": "0x00000000000000000000000000000000002000000000000000800000000000000000000000000000000000000000000000000000000000000000000000200000000000000000000000000000000000000000000010000000000000000000000000000000000000002000000000000000000000000000000000000000000000000000000000080000000000000000000000000000000010000000000000000000020000000000000000000000000000000000000000000000001000000000000000000000000000000000000000000000000000000000000000000000000080000010000000000000000000000000000000000000000000000000020000000000",
      "type": "0x2",
      "transactionHash": "0xeb52a7d4f382b220c134ac57fdf90e96012015827210dee945f43cd5ed8a320e",
      "transactionIndex": "0x71",
      "blockHash": "0xc79979359f0bfd3c974cb97af5483265b5670b2bfd8fc4bf0d05672fe287cda7",
      "blockNumber": "0x9b93a9",
      "gasUsed": "0x69fd",
      "effectiveGasPrice": "0x439d3ef5",
      "from": "0x817ca93300590bf6aa0dfbfa592b055f7eb20090",
      "to": "0xf6d91478e66ce8161e15da103003f3ba6d2bab80",
      "contractAddress": null
    },
    {
      "status": "0x1",
      "cumulativeGasUsed": "0x20bd3ab",
      "logs": [
        {
          "address": "0x7546360e0011bb0b52ce10e21ef0e9341453fe71",
          "topics": [
            "0x8c5be1e5ebec7d5bd14f71427d1e84f3dd0314c0f7b2291e5b200ac8c7c3b925",
            "0x000000000000000000000000817ca93300590bf6aa0dfbfa592b055f7eb20090",
            "0x000000000000000000000000f13d190e9117920c703d79b5f33732e10049b115"
          ],
          "data": "0xffffffffffffffffffffffffffffffffffffffffffffffffffffffffffffffff",
          "blockHash": "0xc79979359f0bfd3c974cb97af5483265b5670b2bfd8fc4bf0d05672fe287cda7",
          "blockNumber": "0x9b93a9",
          "blockTimestamp": "0x69846e58",
          "transactionHash": "0xe78da1eb763b532c5ec3b37437295b02a725f813029bd484e055d0d47f6bbebd",
          "transactionIndex": "0x72",
          "logIndex": "0x5bd",
          "removed": false
        }
      ],
      "logsBloom": "0x00000000000000000000000000001000000000000000000000800000000000000000000000000000000000000000000000000000080000000000000000208000000000000000000000000000000000000000000000000000000000000000000000000000000000002000000000000000000000000000000000000000000000000000000000080000000000000000000000000000000010000000000000000000020000000000000000000000000000000000000000000000001000000000000000000000000000000000000000000000000000000000000000000000000080000010000000000000000000000000000000000000000000000000000000000000",
      "type": "0x2",
      "transactionHash": "0xe78da1eb763b532c5ec3b37437295b02a725f813029bd484e055d0d47f6bbebd",
      "transactionIndex": "0x72",
      "blockHash": "0xc79979359f0bfd3c974cb97af5483265b5670b2bfd8fc4bf0d05672fe287cda7",
      "blockNumber": "0x9b93a9",
      "gasUsed": "0x69fd",
      "effectiveGasPrice": "0x439d3ef5",
      "from": "0x817ca93300590bf6aa0dfbfa592b055f7eb20090",
      "to": "0x7546360e0011bb0b52ce10e21ef0e9341453fe71",
      "contractAddress": null
    },
    {
      "status": "0x1",
      "cumulativeGasUsed": "0x20f0914",
      "logs": [
        {
          "address": "0xe03a1074c86cfedd5c142c4f04f1a1536e203543",
          "topics": [
            "0x40e9cecb9f5f1f1c5b9c97dec2917b7ee92e57ba5563708daca94dd84ad7112f",
            "0x8dce9a4f1ab8ed4a26283471e0831be6d4eca5afa9fd35da37d601f2299e9e24",
            "0x000000000000000000000000f13d190e9117920c703d79b5f33732e10049b115"
          ],
          "data": "0xfffffffffffffffffffffffffffffffffffffffffffffffff21f494c589c00000000000000000000000000000000000000000000000000000db6be37da38c9470000000000000000000000000000000000000000fdbca5f77c29c153f64eec5b0000000000000000000000000000000000000000000000060f4da7fe284f5deaffffffffffffffffffffffffffffffffffffffffffffffffffffffffffffff4e0000000000000000000000000000000000000000000000000000000000000bb8",
          "blockHash": "0xc79979359f0bfd3c974cb97af5483265b5670b2bfd8fc4bf0d05672fe287cda7",
          "blockNumber": "0x9b93a9",
          "blockTimestamp": "0x69846e58",
          "transactionHash": "0xd2dfe24e6cf057317e720ed223d3d80cf0b37b9aef1ec27cd4100fc6d57af15e",
          "transactionIndex": "0x73",
          "logIndex": "0x5be",
          "removed": false
        },
        {
          "address": "0x5d4505aa950a73379b8e9f1116976783ba8340c0",
          "topics": [
            "0x20862c343ea7937a756f3857dcdab13571d506afed1d452842d3bdea818c1c56",
            "0x8dce9a4f1ab8ed4a26283471e0831be6d4eca5afa9fd35da37d601f2299e9e24",
            "0x000000000000000000000000f13d190e9117920c703d79b5f33732e10049b115"
          ],
          "data": "0x00000000000000000000000000000000000000000000000000000000000000010000000000000000000000000000000000000000000000000000000000000001",
          "blockHash": "0xc79979359f0bfd3c974cb97af5483265b5670b2bfd8fc4bf0d05672fe287cda7",
          "blockNumber": "0x9b93a9",
          "blockTimestamp": "0x69846e58",
          "transactionHash": "0xd2dfe24e6cf057317e720ed223d3d80cf0b37b9aef1ec27cd4100fc6d57af15e",
          "transactionIndex": "0x73",
          "logIndex": "0x5bf",
          "removed": false
        },
        {
          "address": "0x7546360e0011bb0b52ce10e21ef0e9341453fe71",
          "topics": [
            "0xddf252ad1be2c89b69c2b068fc378daa952ba7f163c4a11628f55a4df523b3ef",
            "0x000000000000000000000000817ca93300590bf6aa0dfbfa592b055f7eb20090",
            "0x000000000000000000000000e03a1074c86cfedd5c142c4f04f1a1536e203543"
          ],
          "data": "0x0000000000000000000000000000000000000000000000000de0b6b3a7640000",
          "blockHash": "0xc79979359f0bfd3c974cb97af5483265b5670b2bfd8fc4bf0d05672fe287cda7",
          "blockNumber": "0x9b93a9",
          "blockTimestamp": "0x69846e58",
          "transactionHash": "0xd2dfe24e6cf057317e720ed223d3d80cf0b37b9aef1ec27cd4100fc6d57af15e",
          "transactionIndex": "0x73",
          "logIndex": "0x5c0",
          "removed": false
        },
        {
          "address": "0xf6d91478e66ce8161e15da103003f3ba6d2bab80",
          "topics": [
            "0xddf252ad1be2c89b69c2b068fc378daa952ba7f163c4a11628f55a4df523b3ef",
            "0x000000000000000000000000e03a1074c86cfedd5c142c4f04f1a1536e203543",
            "0x000000000000000000000000817ca93300590bf6aa0dfbfa592b055f7eb20090"
          ],
          "data": "0x0000000000000000000000000000000000000000000000000db6be37da38c947",
          "blockHash": "0xc79979359f0bfd3c974cb97af5483265b5670b2bfd8fc4bf0d05672fe287cda7",
          "blockNumber": "0x9b93a9",
          "blockTimestamp": "0x69846e58",
          "transactionHash": "0xd2dfe24e6cf057317e720ed223d3d80cf0b37b9aef1ec27cd4100fc6d57af15e",
          "transactionIndex": "0x73",
          "logIndex": "0x5c1",
          "removed": false
        }
      ],
      "logsBloom": "0x000000000000000000000000000010000020000000000002008000000000000000000000000000000000000000000000000001040c000000000000000000800000000000000000000000000a000000000000000010000020000000100000000000100000000000002008000080000000000000000000100000000010000000000000000000080000000110000000000000000000000010000000000000000000000000000000000000000000000000000000000000000000001000000000000000000002000000000400000000000000000000000000000000001000000080001000000000000000004000000000000000000000000000000000020040000000",
      "type": "0x2",
      "transactionHash": "0xd2dfe24e6cf057317e720ed223d3d80cf0b37b9aef1ec27cd4100fc6d57af15e",
      "transactionIndex": "0x73",
      "blockHash": "0xc79979359f0bfd3c974cb97af5483265b5670b2bfd8fc4bf0d05672fe287cda7",
      "blockNumber": "0x9b93a9",
      "gasUsed": "0x33569",
      "effectiveGasPrice": "0x439d3ef5",
      "from": "0x817ca93300590bf6aa0dfbfa592b055f7eb20090",
      "to": "0xf13d190e9117920c703d79b5f33732e10049b115",
      "contractAddress": null
    }
  ],
  "libraries": [],
  "pending": [],
  "returns": {},
  "timestamp": 1770286681231,
  "chain": 11155111,
  "commit": "245932c"
}