{
  "transactions": [
    {
      "hash": "0xc113ebecc1408e5a096231e40c3ff9714b4e5a0d0f0b1c42ffe20728d270a403",
      "transactionType": "CALL",
      "contractName": null,
      "contractAddress": "0x7546360e0011bb0b52ce10e21ef0e9341453fe71",
      "function": "approve(address,uint256)",
      "arguments": [
        "0x000000000022D473030F116dDEE9F6B43aC78BA3",
        "115792089237316195423570985008687907853269984665640564039457584007913129639935"
      ],
      "transaction": {
        "from": "0x817ca93300590bf6aa0dfbfa592b055f7eb20090",
        "to": "0x7546360e0011bb0b52ce10e21ef0e9341453fe71",
        "gas": "0x9222",
        "value": "0x0",
        "input": "0x095ea7b3000000000000000000000000000000000022d473030f116ddee9f6b43ac78ba3ffffffffffffffffffffffffffffffffffffffffffffffffffffffffffffffff",
        "nonce": "0x11",
        "chainId": "0xaa36a7"
      },
      "additionalContracts": [],
      "isFixedGasLimit": false
    },
    {
      "hash": "0x53fc88cab984baf51af32a3d503c26e6b74d0218fe44227e948557895a422c1a",
      "transactionType": "CALL",
      "contractName": null,
      "contractAddress": "0x000000000022d473030f116ddee9f6b43ac78ba3",
      "function": "approve(address,address,uint160,uint48)",
      "arguments": [
        "0x7546360e0011Bb0B52ce10E21eF0E9341453fE71",
        "0x429ba70129df741B2Ca2a85BC3A2a3328e5c09b4",
        "1461501637330902918203684832716283019655932542975",
        "281474976710655"
      ],
      "transaction": {
        "from": "0x817ca93300590bf6aa0dfbfa592b055f7eb20090",
        "to": "0x000000000022d473030f116ddee9f6b43ac78ba3",
        "gas": "0x9f6c",
        "value": "0x0",
        "input": "0x87517c450000000000000000000000007546360e0011bb0b52ce10e21ef0e9341453fe71000000000000000000000000429ba70129df741b2ca2a85bc3a2a3328e5c09b4000000000000000000000000ffffffffffffffffffffffffffffffffffffffff0000000000000000000000000000000000000000000000000000ffffffffffff",
        "nonce": "0x12",
        "chainId": "0xaa36a7"
      },
      "additionalContracts": [],
      "isFixedGasLimit": false
    },
    {
      "hash": "0x307a844957bfeb56214cdd37ee3ab4c6cde3a34dc3cf2c82d838f83538c226eb",
      "transactionType": "CALL",
      "contractName": null,
      "contractAddress": "0xf6d91478e66ce8161e15da103003f3ba6d2bab80",
      "function": "approve(address,uint256)",
      "arguments": [
        "0x000000000022D473030F116dDEE9F6B43aC78BA3",
        "115792089237316195423570985008687907853269984665640564039457584007913129639935"
      ],
      "transaction": {
        "from": "0x817ca93300590bf6aa0dfbfa592b055f7eb20090",
        "to": "0xf6d91478e66ce8161e15da103003f3ba6d2bab80",
        "gas": "0x9222",
        "value": "0x0",
        "input": "0x095ea7b3000000000000000000000000000000000022d473030f116ddee9f6b43ac78ba3ffffffffffffffffffffffffffffffffffffffffffffffffffffffffffffffff",
        "nonce": "0x13",
        "chainId": "0xaa36a7"
      },
      "additionalContracts": [],
      "isFixedGasLimit": false
    },
    {
      "hash": "0xb02c4f1848b75c9d09c228503d06ab6a881ac72ddae2ab925b58f84280ac90c9",
      "transactionType": "CALL",
      "contractName": null,
      "contractAddress": "0x000000000022d473030f116ddee9f6b43ac78ba3",
      "function": "approve(address,address,uint160,uint48)",
      "arguments": [
        "0xF6d91478e66CE8161e15Da103003F3BA6d2bab80",
        "0x429ba70129df741B2Ca2a85BC3A2a3328e5c09b4",
        "1461501637330902918203684832716283019655932542975",
        "281474976710655"
      ],
      "transaction": {
        "from": "0x817ca93300590bf6aa0dfbfa592b055f7eb20090",
        "to": "0x000000000022d473030f116ddee9f6b43ac78ba3",
        "gas": "0x96a0",
        "value": "0x0",
        "input": "0x87517c45000000000000000000000000f6d91478e66ce8161e15da103003f3ba6d2bab80000000000000000000000000429ba70129df741b2ca2a85bc3a2a3328e5c09b4000000000000000000000000ffffffffffffffffffffffffffffffffffffffff0000000000000000000000000000000000000000000000000000ffffffffffff",
        "nonce": "0x14",
        "chainId": "0xaa36a7"
      },
      "additionalContracts": [],
      "isFixedGasLimit": false
    },
    {
      "hash": "0xd54ae99639bf97cff47fc5f9ea4622fdfd58c421c6bbb7da29f57a5812859aaa",
      "transactionType": "CALL",
      "contractName": null,
      "contractAddress": "0x429ba70129df741b2ca2a85bc3a2a3328e5c09b4",
      "function": "multicall(bytes[])",
      "arguments": [
        "[0xf70204050000000000000000000000007546360e0011bb0b52ce10e21ef0e9341453fe71000000000000000000000000f6d91478e66ce8161e15da103003f3ba6d2bab800000000000000000000000000000000000000000000000000000000000000bb8000000000000000000000000000000000000000000000000000000000000003c0000000000000000000000005d4505aa950a73379b8e9f1116976783ba8340c0000000000000000000000000000000000000000100000000000000000000000000000000000000000000000000000000000000000000000000000000000000e00000000000000000000000000000000000000000000000000000000000000000, 0xdd46508f00000000000000000000000000000000000000000000000000000000000000400000000000000000000000000000000000000000000000000000000069847c080000000000000000000000000000000000000000000000000000000000000400000000000000000000000000000000000000000000000000000000000000004000000000000000000000000000000000000000000000000000000000000000800000000000000000000000000000000000000000000000000000000000000004020d14140000000000000000000000000000000000000000000000000000000000000000000000000000000000000000000000000000000000000000000000040000000000000000000000000000000000000000000000000000000000000080000000000000000000000000000000000000000000000000000000000000024000000000000000000000000000000000000000000000000000000000000002a0000000000000000000000000000000000000000000000000000000000000030000000000000000000000000000000000000000000000000000000000000001a00000000000000000000000007546360e0011bb0b52ce10e21ef0e9341453fe71000000000000000000000000f6d91478e66ce8161e15da103003f3ba6d2bab800000000000000000000000000000000000000000000000000000000000000bb8000000000000000000000000000000000000000000000000000000000000003c0000000000000000000000005d4505aa950a73379b8e9f1116976783ba8340c0ffffffffffffffffffffffffffffffffffffffffffffffffffffffffffff5038000000000000000000000000000000000000000000000000000000000000afc80000000000000000000000000000000000000000000000060f4da7fe284f5dea0000000000000000000000000000000000000000000000056bc75e2d631000010000000000000000000000000000000000000000000000056bc75e2d63100001000000000000000000000000817ca93300590bf6aa0dfbfa592b055f7eb200900000000000000000000000000000000000000000000000000000000000000180000000000000000000000000000000000000000000000000000000000000000000000000000000000000000000000000000000000000000000000000000000400000000000000000000000007546360e0011bb0b52ce10e21ef0e9341453fe71000000000000000000000000f6d91478e66ce8161e15da103003f3ba6d2bab8000000000000000000000000000000000000000000000000000000000000000400000000000000000000000007546360e0011bb0b52ce10e21ef0e9341453fe71000000000000000000000000817ca93300590bf6aa0dfbfa592b055f7eb200900000000000000000000000000000000000000000000000000000000000000040000000000000000000000000f6d91478e66ce8161e15da103003f3ba6d2bab80000000000000000000000000817ca93300590bf6aa0dfbfa592b055f7eb20090]"
      ],
      "transaction": {
        "from": "0x817ca93300590bf6aa0dfbfa592b055f7eb20090",
        "to": "0x429ba70129df741b2ca2a85bc3a2a3328e5c09b4",
        "gas": "0x93d89",
        "value": "0x0",
        "input": "0xac9650d800000000000000000000000000000000000000000000000000000000000000200000000000000000000000000000000000000000000000000000000000000002000000000000000000000000000000000000000000000000000000000000004000000000000000000000000000000000000000000000000000000000000001800000000000000000000000000000000000000000000000000000000000000104f70204050000000000000000000000007546360e0011bb0b52ce10e21ef0e9341453fe71000000000000000000000000f6d91478e66ce8161e15da103003f3ba6d2bab800000000000000000000000000000000000000000000000000000000000000bb8000000000000000000000000000000000000000000000000000000000000003c0000000000000000000000005d4505aa950a73379b8e9f1116976783ba8340c0000000000000000000000000000000000000000100000000000000000000000000000000000000000000000000000000000000000000000000000000000000e00000000000000000000000000000000000000000000000000000000000000000000000000000000000000000000000000000000000000000000000000000000000000000000000000000000000000000000000000000000000000464dd46508f00000000000000000000000000000000000000000000000000000000000000400000000000000000000000000000000000000000000000000000000069847c080000000000000000000000000000000000000000000000000000000000000400000000000000000000000000000000000000000000000000000000000000004000000000000000000000000000000000000000000000000000000000000000800000000000000000000000000000000000000000000000000000000000000004020d14140000000000000000000000000000000000000000000000000000000000000000000000000000000000000000000000000000000000000000000000040000000000000000000000000000000000000000000000000000000000000080000000000000000000000000000000000000000000000000000000000000024000000000000000000000000000000000000000000000000000000000000002a0000000000000000000000000000000000000000000000000000000000000030000000000000000000000000000000000000000000000000000000000000001a00000000000000000000000007546360e0011bb0b52ce10e21ef0e9341453fe71000000000000000000000000f6d91478e66ce8161e15da103003f3ba6d2bab800000000000000000000000000000000000000000000000000000000000000bb8000000000000000000000000000000000000000000000000000000000000003c0000000000000000000000005d4505aa950a73379b8e9f1116976783ba8340c0ffffffffffffffffffffffffffffffffffffffffffffffffffffffffffff5038000000000000000000000000000000000000000000000000000000000000afc80000000000000000000000000000000000000000000000060f4da7fe284f5dea0000000000000000000000000000000000000000000000056bc75e2d631000010000000000000000000000000000000000000000000000056bc75e2d63100001000000000000000000000000817ca93300590bf6aa0dfbfa592b055f7eb200900000000000000000000000000000000000000000000000000000000000000180000000000000000000000000000000000000000000000000000000000000000000000000000000000000000000000000000000000000000000000000000000400000000000000000000000007546360e0011bb0b52ce10e21ef0e9341453fe71000000000000000000000000f6d91478e66ce8161e15da103003f3ba6d2bab8000000000000000000000000000000000000000000000000000000000000000400000000000000000000000007546360e0011bb0b52ce10e21ef0e9341453fe71000000000000000000000000817ca93300590bf6aa0dfbfa592b055f7eb200900000000000000000000000000000000000000000000000000000000000000040000000000000000000000000f6d91478e66ce8161e15da103003f3ba6d2bab80000000000000000000000000817ca93300590bf6aa0dfbfa592b055f7eb2009000000000000000000000000000000000000000000000000000000000",
        "nonce": "0x15",
        "chainId": "0xaa36a7"
      },
      "additionalContracts": [],
      "isFixedGasLimit": false
    }
  ],
  "receipts": [
    {
      "status": "0x1",
      "cumulativeGasUsed": "0x14675d6",
      "logs": [
        {
          "address": "0x7546360e0011bb0b52ce10e21ef0e9341453fe71",
          "topics": [
            "0x8c5be1e5ebec7d5bd14f71427d1e84f3dd0314c0f7b2291e5b200ac8c7c3b925",
            "0x000000000000000000000000817ca93300590bf6aa0dfbfa592b055f7eb20090",
            "0x000000000000000000000000000000000022d473030f116ddee9f6b43ac78ba3"
          ],
          "data": "0xffffffffffffffffffffffffffffffffffffffffffffffffffffffffffffffff",
          "blockHash": "0xb7aa571c1362e8596f73afb2b1e9e4fbcc66237a1f274f4ad6c33cedc2bba09b",
          "blockNumber": "0x9b93a4",
          "blockTimestamp": "0x69846e1c",
          "transactionHash": "0xb02c4f1848b75c9d09c228503d06ab6a881ac72ddae2ab925b58f84280ac90c9",
          "transactionIndex": "0x5b",
          "logIndex": "0x10b",
          "removed": false
        }
      ],
      "logsBloom": "0x00000000000000000000000000001000000000000000000000000000000000000000000000000000000000000000000000000000880000000000000000208000000000000000000000004000000000000000000000000800000000000000000000000000000000002000000000000000000000000000000000000000000000000000000000000000000000000000000000000000000010000000000000000000020000000000000000000000000000000000000000000000001000000000000000000000000000000000000000000000000000000000000000000000000000000010000000000000000000000000000000000000000000000000000000000000",
      "type": "0x2",
      "transactionHash": "0xb02c4f1848b75c9d09c228503d06ab6a881ac72ddae2ab925b58f84280ac90c9",
      "transactionIndex": "0x5b",
      "blockHash": "0xb7aa571c1362e8596f73afb2b1e9e4fbcc66237a1f274f4ad6c33cedc2bba09b",
      "blockNumber": "0x9b93a4",
      "gasUsed": "0x69cd",
      "effectiveGasPrice": "0x44979149",
      "from": "0x817ca93300590bf6aa0dfbfa592b055f7eb20090",
      "to": "0x7546360e0011bb0b52ce10e21ef0e9341453fe71",
      "contractAddress": null
    },
    {
      "status": "0x1",
      "cumulativeGasUsed": "0x146e2d8",
      "logs": [
        {
          "address": "0x000000000022d473030f116ddee9f6b43ac78ba3",
          "topics": [
            "0xda9fa7c1b00402c17d0161b249b1ab8bbec047c5a52207b9c112deffd817036b",
            "0x000000000000000000000000817ca93300590bf6aa0dfbfa592b055f7eb20090",
            "0x0000000000000000000000007546360e0011bb0b52ce10e21ef0e9341453fe71",
            "0x000000000000000000000000429ba70129df741b2ca2a85bc3a2a3328e5c09b4"
          ],
          "data": "0x000000000000000000000000ffffffffffffffffffffffffffffffffffffffff0000000000000000000000000000000000000000000000000000ffffffffffff",
          "blockHash": "0xb7aa571c1362e8596f73afb2b1e9e4fbcc66237a1f274f4ad6c33cedc2bba09b",
          "blockNumber": "0x9b93a4",
          "blockTimestamp": "0x69846e1c",
          "transactionHash": "0x53fc88cab984baf51af32a3d503c26e6b74d0218fe44227e948557895a422c1a",
          "transactionIndex": "0x5c",
          "logIndex": "0x10c",
          "removed": false
        }
      ],
      "logsBloom": "0x00010000000000000000000000000000000000000000000000000000000000000000000000000040080000000000000000000000000000000000000020080000000000000000020000000000000000000000000000000000000000000000000000000000000000002000000000000000000000000000000000000800000000000020000000000000000000000000000000000000000010000000000000000000000000000000000000000000000000000000000000000000001000080000000000000000000000000000000000000000000000000000000040000000000000000000000000000000000000000000000000000000000000000080000000000400",
      "type": "0x2",
      "transactionHash": "0x53fc88cab984baf51af32a3d503c26e6b74d0218fe44227e948557895a422c1a",
      "transactionIndex": "0x5c",
      "blockHash": "0xb7aa571c1362e8596f73afb2b1e9e4fbcc66237a1f274f4ad6c33cedc2bba09b",
      "blockNumber": "0x9b93a4",
      "gasUsed": "0x6d02",
      "effectiveGasPrice": "0x44979149",
      "from": "0x817ca93300590bf6aa0dfbfa592b055f7eb20090",
      "to": "0x000000000022d473030f116ddee9f6b43ac78ba3",
      "contractAddress": null
    },
    {
      "status": "0x1",
      "cumulativeGasUsed": "0x1474ca5",
      "logs": [
        {
          "address": "0xf6d91478e66ce8161e15da103003f3ba6d2bab80",
          "topics": [
            "0x8c5be1e5ebec7d5bd14f71427d1e84f3dd0314c0f7b2291e5b200ac8c7c3b925",
            "0x000000000000000000000000817ca93300590bf6aa0dfbfa592b055f7eb20090",
            "0x000000000000000000000000000000000022d473030f116ddee9f6b43ac78ba3"
          ],
          "data": "0xffffffffffffffffffffffffffffffffffffffffffffffffffffffffffffffff",
          "blockHash": "0xb7aa571c1362e8596f73afb2b1e9e4fbcc66237a1f274f4ad6c33cedc2bba09b",
          "blockNumber": "0x9b93a4",
          "blockTimestamp": "0x69846e1c",
          "transactionHash": "0xc113ebecc1408e5a096231e40c3ff9714b4e5a0d0f0b1c42ffe20728d270a403",
          "transactionIndex": "0x5d",
          "logIndex": "0x10d",
          "removed": false
        }
      ],
      "logsBloom": "0x00000000000000000000000000000000002000000000000000000000000000000000000000000000000000000000000000000000800000000000000000200000000000000000000000004000000000000000000010000800000000000000000000000000000000002000000000000000000000000000000000000000000000000000000000000000000000000000000000000000000010000000000000000000020000000000000000000000000000000000000000000000001000000000000000000000000000000000000000000000000000000000000000000000000000000010000000000000000000000000000000000000000000000000020000000000",
      "type": "0x2",
      "transactionHash": "0xc113ebecc1408e5a096231e40c3ff9714b4e5a0d0f0b1c42ffe20728d270a403",
      "transactionIndex": "0x5d",
      "blockHash": "0xb7aa571c1362e8596f73afb2b1e9e4fbcc66237a1f274f4ad6c33cedc2bba09b",
      "blockNumber": "0x9b93a4",
      "gasUsed": "0x69cd",
      "effectiveGasPrice": "0x44979149",
      "from": "0x817ca93300590bf6aa0dfbfa592b055f7eb20090",
      "to": "0xf6d91478e66ce8161e15da103003f3ba6d2bab80",
      "contractAddress": null
    },
    {
      "status": "0x1",
      "cumulativeGasUsed": "0x147b9b3",
      "logs": [
        {
          "address": "0x000000000022d473030f116ddee9f6b43ac78ba3",
          "topics": [
            "0xda9fa7c1b00402c17d0161b249b1ab8bbec047c5a52207b9c112deffd817036b",
            "0x000000000000000000000000817ca93300590bf6aa0dfbfa592b055f7eb20090",
            "0x000000000000000000000000f6d91478e66ce8161e15da103003f3ba6d2bab80",
            "0x000000000000000000000000429ba70129df741b2ca2a85bc3a2a3328e5c09b4"
          ],
          "data": "0x000000000000000000000000ffffffffffffffffffffffffffffffffffffffff0000000000000000000000000000000000000000000000000000ffffffffffff",
          "blockHash": "0xb7aa571c1362e8596f73afb2b1e9e4fbcc66237a1f274f4ad6c33cedc2bba09b",
          "blockNumber": "0x9b93a4",
          "blockTimestamp": "0x69846e1c",
          "transactionHash": "0x307a844957bfeb56214cdd37ee3ab4c6cde3a34dc3cf2c82d838f83538c226eb",
          "transactionIndex": "0x5e",
          "logIndex": "0x10e",
          "removed": false
        }
      ],
      "logsBloom": "0x00010000000000000000000000000000000000000000000000000000000000000000000000000040080000000000000000000000000000000000000000080000000080000000000000000000000000000000000000000000000000000000000000000000000000002000000000000000000000000000000000000800000000000020000000000000000000000000000000000000000010000000000000000000000000000000000000000000000000000000000000000000001000080000000000000000000000000000000000000000000000000000000040000000010000000000004000000000000000000000000000000000000000000000000000000400",
      "type": "0x2",
      "transactionHash": "0x307a844957bfeb56214cdd37ee3ab4c6cde3a34dc3cf2c82d838f83538c226eb",
      "transactionIndex": "0x5e",
      "blockHash": "0xb7aa571c1362e8596f73afb2b1e9e4fbcc66237a1f274f4ad6c33cedc2bba09b",
      "blockNumber": "0x9b93a4",
      "gasUsed": "0x6d0e",
      "effectiveGasPrice": "0x44979149",
      "from": "0x817ca93300590bf6aa0dfbfa592b055f7eb20090",
      "to": "0x000000000022d473030f116ddee9f6b43ac78ba3",
      "contractAddress": null
    },
    {
      "status": "0x1",
      "cumulativeGasUsed": "0x14e6a4f",
      "logs": [
        {
          "address": "0xe03a1074c86cfedd5c142c4f04f1a1536e203543",
          "topics": [
            "0xdd466e674ea557f56295e2d0218a125ea4b4f0f6f3307b95f85e6110838d6438",
            "0x8dce9a4f1ab8ed4a26283471e0831be6d4eca5afa9fd35da37d601f2299e9e24",
            "0x0000000000000000000000007546360e0011bb0b52ce10e21ef0e9341453fe71",
            "0x000000000000000000000000f6d91478e66ce8161e15da103003f3ba6d2bab80"
          ],
          "data": "0x0000000000000000000000000000000000000000000000000000000000000bb8000000000000000000000000000000000000000000000000000000000000003c0000000000000000000000005d4505aa950a73379b8e9f1116976783ba8340c000000000000000000000000000000000000000010000000000000000000000000000000000000000000000000000000000000000000000000000000000000000",
          "blockHash": "0xb7aa571c1362e8596f73afb2b1e9e4fbcc66237a1f274f4ad6c33cedc2bba09b",
          "blockNumber": "0x9b93a4",
          "blockTimestamp": "0x69846e1c",
          "transactionHash": "0xd54ae99639bf97cff47fc5f9ea4622fdfd58c421c6bbb7da29f57a5812859aaa",
          "transactionIndex": "0x5f",
          "logIndex": "0x10f",
          "removed": false
        },
        {
          "address": "0x429ba70129df741b2ca2a85bc3a2a3328e5c09b4",
          "topics": [
            "0xddf252ad1be2c89b69c2b068fc378daa952ba7f163c4a11628f55a4df523b3ef",
            "0x0000000000000000000000000000000000000000000000000000000000000000",
            "0x000000000000000000000000817ca93300590bf6aa0dfbfa592b055f7eb20090",
            "0x00000000000000000000000000000000000000000000000000000000000059c3"
          ],
          "data": "0x",
          "blockHash": "0xb7aa571c1362e8596f73afb2b1e9e4fbcc66237a1f274f4ad6c33cedc2bba09b",
          "blockNumber": "0x9b93a4",
          "blockTimestamp": "0x69846e1c",
          "transactionHash": "0xd54ae99639bf97cff47fc5f9ea4622fdfd58c421c6bbb7da29f57a5812859aaa",
          "transactionIndex": "0x5f",
          "logIndex": "0x110",
          "removed": false
        },
        {
          "address": "0xe03a1074c86cfedd5c142c4f04f1a1536e203543",
          "topics": [
            "0xf208f4912782fd25c7f114ca3723a2d5dd6f3bcc3ac8db5af63baa85f711d5ec",
            "0x8dce9a4f1ab8ed4a26283471e0831be6d4eca5afa9fd35da37d601f2299e9e24",
            "0x000000000000000000000000429ba70129df741b2ca2a85bc3a2a3328e5c09b4"
          ],
          "data": "0xffffffffffffffffffffffffffffffffffffffffffffffffffffffffffff5038000000000000000000000000000000000000000000000000000000000000afc80000000000000000000000000000000000000000000000060f4da7fe284f5dea00000000000000000000000000000000000000000000000000000000000059c3",
          "blockHash": "0xb7aa571c1362e8596f73afb2b1e9e4fbcc66237a1f274f4ad6c33cedc2bba09b",
          "blockNumber": "0x9b93a4",
          "blockTimestamp": "0x69846e1c",
          "transactionHash": "0xd54ae99639bf97cff47fc5f9ea4622fdfd58c421c6bbb7da29f57a5812859aaa",
          "transactionIndex": "0x5f",
          "logIndex": "0x111",
          "removed": false
        },
        {
          "address": "0x7546360e0011bb0b52ce10e21ef0e9341453fe71",
          "topics": [
            "0xddf252ad1be2c89b69c2b068fc378daa952ba7f163c4a11628f55a4df523b3ef",
            "0x000000000000000000000000817ca93300590bf6aa0dfbfa592b055f7eb20090",
            "0x000000000000000000000000e03a1074c86cfedd5c142c4f04f1a1536e203543"
          ],
          "data": "0x0000000000000000000000000000000000000000000000056bc75e2d63100000",
          "blockHash": "0xb7aa571c1362e8596f73afb2b1e9e4fbcc66237a1f274f4ad6c33cedc2bba09b",
          "blockNumber": "0x9b93a4",
          "blockTimestamp": "0x69846e1c",
          "transactionHash": "0xd54ae99639bf97cff47fc5f9ea4622fdfd58c421c6bbb7da29f57a5812859aaa",
          "transactionIndex": "0x5f",
          "logIndex": "0x112",
          "removed": false
        },
        {
          "address": "0xf6d91478e66ce8161e15da103003f3ba6d2bab80",
          "topics": [
            "0xddf252ad1be2c89b69c2b068fc378daa952ba7f163c4a11628f55a4df523b3ef",
            "0x000000000000000000000000817ca93300590bf6aa0dfbfa592b055f7eb20090",
            "0x000000000000000000000000e03a1074c86cfedd5c142c4f04f1a1536e203543"
          ],
          "data": "0x0000000000000000000000000000000000000000000000056bc75e2d63100000",
          "blockHash": "0xb7aa571c1362e8596f73afb2b1e9e4fbcc66237a1f274f4ad6c33cedc2bba09b",
          "blockNumber": "0x9b93a4",
          "blockTimestamp": "0x69846e1c",
          "transactionHash": "0xd54ae99639bf97cff47fc5f9ea4622fdfd58c421c6bbb7da29f57a5812859aaa",
          "transactionIndex": "0x5f",
          "logIndex": "0x113",
          "removed": false
        }
      ],
      "logsBloom": "0x0000000000000000000000100000100000200000000000000000000008000000000000000000004008000000000000000000010008000000000000002000800000008000000002000000000a000000000000000010000000000000000000000000000000020000002000000080000800000000001000100000000810000000000000000001000008000010000000000000000001000010000000000000200000000004000000000000000000000000000000000000400000001000000000000000000002000000000400000000000000000000000000000000001000010020001000004000000000000000010000000004000000000000000080020040000000",
      "type": "0x2",
      "transactionHash": "0xd54ae99639bf97cff47fc5f9ea4622fdfd58c421c6bbb7da29f57a5812859aaa",
      "transactionIndex": "0x5f",
      "blockHash": "0xb7aa571c1362e8596f73afb2b1e9e4fbcc66237a1f274f4ad6c33cedc2bba09b",
      "blockNumber": "0x9b93a4",
      "gasUsed": "0x6b09c",
      "effectiveGasPrice": "0x44979149",
      "from": "0x817ca93300590bf6aa0dfbfa592b055f7eb20090",
      "to": "0x429ba70129df741b2ca2a85bc3a2a3328e5c09b4",
      "contractAddress": null
    }
  ],
  "libraries": [],
  "pending": [],
  "returns": {},
  "timestamp": 1770286621093,
  "chain": 11155111,
  "commit": "245932c"
}